{
  "contractName": "IncidentReportRegistry",
  "abi": [
    {
      "inputs": [],
      "stateMutability": "nonpayable",
      "type": "constructor"
    },
    {
      "anonymous": false,
      "inputs": [
        {
          "indexed": false,
          "internalType": "address",
          "name": "authority",
          "type": "address"
        }
      ],
      "name": "AuthorityAdded",
      "type": "event"
    },
    {
      "anonymous": false,
      "inputs": [
        {
          "indexed": false,
          "internalType": "address",
          "name": "authority",
          "type": "address"
        }
      ],
      "name": "AuthorityRemoved",
      "type": "event"
    },
    {
      "anonymous": false,
      "inputs": [
        {
          "indexed": true,
          "internalType": "uint256",
          "name": "reportId",
          "type": "uint256"
        },
        {
          "indexed": true,
          "internalType": "address",
          "name": "reporter",
          "type": "address"
        },
        {
          "indexed": false,
          "internalType": "string",
          "name": "incidentType",
          "type": "string"
        }
      ],
      "name": "ReportFiled",
      "type": "event"
    },
    {
      "anonymous": false,
      "inputs": [
        {
          "indexed": true,
          "internalType": "uint256",
          "name": "reportId",
          "type": "uint256"
        },
        {
          "indexed": false,
          "internalType": "enum IncidentReportRegistry.Status",
          "name": "status",
          "type": "uint8"
        }
      ],
      "name": "StatusUpdated",
      "type": "event"
    },
    {
      "inputs": [],
      "name": "admin",
      "outputs": [
        {
          "internalType": "address",
          "name": "",
          "type": "address"
        }
      ],
      "stateMutability": "view",
      "type": "function",
      "constant": true
    },
    {
      "inputs": [
        {
          "internalType": "address",
          "name": "",
          "type": "address"
        }
      ],
      "name": "authorities",
      "outputs": [
        {
          "internalType": "bool",
          "name": "",
          "type": "bool"
        }
      ],
      "stateMutability": "view",
      "type": "function",
      "constant": true
    },
    {
      "inputs": [],
      "name": "reportCount",
      "outputs": [
        {
          "internalType": "uint256",
          "name": "",
          "type": "uint256"
        }
      ],
      "stateMutability": "view",
      "type": "function",
      "constant": true
    },
    {
      "inputs": [
        {
          "internalType": "uint256",
          "name": "",
          "type": "uint256"
        }
      ],
      "name": "reports",
      "outputs": [
        {
          "internalType": "uint256",
          "name": "id",
          "type": "uint256"
        },
        {
          "internalType": "address",
          "name": "reporter",
          "type": "address"
        },
        {
          "internalType": "string",
          "name": "incidentHash",
          "type": "string"
        },
        {
          "internalType": "uint256",
          "name": "timestamp",
          "type": "uint256"
        },
        {
          "internalType": "enum IncidentReportRegistry.Status",
          "name": "status",
          "type": "uint8"
        },
        {
          "internalType": "string",
          "name": "location",
          "type": "string"
        },
        {
          "internalType": "string",
          "name": "incidentType",
          "type": "string"
        },
        {
          "internalType": "bool",
          "name": "isAnonymous",
          "type": "bool"
        }
      ],
      "stateMutability": "view",
      "type": "function",
      "constant": true
    },
    {
      "inputs": [
        {
          "internalType": "string",
          "name": "_incidentHash",
          "type": "string"
        },
        {
          "internalType": "string",
          "name": "_location",
          "type": "string"
        },
        {
          "internalType": "string",
          "name": "_incidentType",
          "type": "string"
        },
        {
          "internalType": "bool",
          "name": "_isAnonymous",
          "type": "bool"
        }
      ],
      "name": "fileReport",
      "outputs": [
        {
          "internalType": "uint256",
          "name": "",
          "type": "uint256"
        }
      ],
      "stateMutability": "nonpayable",
      "type": "function"
    },
    {
      "inputs": [
        {
          "internalType": "uint256",
          "name": "_reportId",
          "type": "uint256"
        },
        {
          "internalType": "enum IncidentReportRegistry.Status",
          "name": "_status",
          "type": "uint8"
        }
      ],
      "name": "updateReportStatus",
      "outputs": [],
      "stateMutability": "nonpayable",
      "type": "function"
    },
    {
      "inputs": [
        {
          "internalType": "address",
          "name": "_authority",
          "type": "address"
        }
      ],
      "name": "addAuthority",
      "outputs": [],
      "stateMutability": "nonpayable",
      "type": "function"
    },
    {
      "inputs": [
        {
          "internalType": "address",
          "name": "_authority",
          "type": "address"
        }
      ],
      "name": "removeAuthority",
      "outputs": [],
      "stateMutability": "nonpayable",
      "type": "function"
    },
    {
      "inputs": [
        {
          "internalType": "uint256",
          "name": "_reportId",
          "type": "uint256"
        }
      ],
      "name": "getReport",
      "outputs": [
        {
          "internalType": "uint256",
          "name": "id",
          "type": "uint256"
        },
        {
          "internalType": "address",
          "name": "reporter",
          "type": "address"
        },
        {
          "internalType": "string",
          "name": "incidentHash",
          "type": "string"
        },
        {
          "internalType": "uint256",
          "name": "timestamp",
          "type": "uint256"
        },
        {
          "internalType": "enum IncidentReportRegistry.Status",
          "name": "status",
          "type": "uint8"
        },
        {
          "internalType": "string",
          "name": "location",
          "type": "string"
        },
        {
          "internalType": "string",
          "name": "incidentType",
          "type": "string"
        },
        {
          "internalType": "bool",
          "name": "isAnonymous",
          "type": "bool"
        }
      ],
      "stateMutability": "view",
      "type": "function",
      "constant": true
    }
  ],
  "bytecode": "0x6080604052600060035534801561001557600080fd5b5033600160006101000a81548173ffffffffffffffffffffffffffffffffffffffff021916908373ffffffffffffffffffffffffffffffffffffffff16021790555060016000803373ffffffffffffffffffffffffffffffffffffffff1673ffffffffffffffffffffffffffffffffffffffff16815260200190815260200160002060006101000a81548160ff021916908315150217905550611907806100bd6000396000f3fe608060405234801561001057600080fd5b50600436106100935760003560e01c806391223d691161006657806391223d6914610139578063c942adf714610169578063d544e010146101a0578063f3ed5976146101bc578063f851a440146101d857610093565b8063185c6f841461009857806326defa73146100b65780634e7f9b19146100d2578063860cfba714610109575b600080fd5b6100a06101f6565b6040516100ad9190610f50565b60405180910390f35b6100d060048036038101906100cb9190610fdd565b6101fc565b005b6100ec60048036038101906100e79190611036565b6103a9565b60405161010098979695949392919061119d565b60405180910390f35b610123600480360381019061011e9190611391565b61063d565b6040516101309190610f50565b60405180910390f35b610153600480360381019061014e9190610fdd565b610843565b604051610160919061144c565b60405180910390f35b610183600480360381019061017e9190611036565b610863565b60405161019798979695949392919061119d565b60405180910390f35b6101ba60048036038101906101b59190610fdd565b610a7d565b005b6101d660048036038101906101d1919061148c565b610cba565b005b6101e0610e6e565b6040516101ed91906114cc565b60405180910390f35b60035481565b600160009054906101000a900473ffffffffffffffffffffffffffffffffffffffff1673ffffffffffffffffffffffffffffffffffffffff163373ffffffffffffffffffffffffffffffffffffffff161461028c576040517f08c379a000000000000000000000000000000000000000000000000000000000815260040161028390611559565b60405180910390fd5b6000808273ffffffffffffffffffffffffffffffffffffffff1673ffffffffffffffffffffffffffffffffffffffff16815260200190815260200160002060009054906101000a900460ff1615610318576040517f08c379a000000000000000000000000000000000000000000000000000000000815260040161030f906115c5565b60405180910390fd5b60016000808373ffffffffffffffffffffffffffffffffffffffff1673ffffffffffffffffffffffffffffffffffffffff16815260200190815260200160002060006101000a81548160ff0219169083151502179055507f550a8ae64ec9d6640b6f168a26d3e6364b90defe8110c92135aa775b279e54ea8160405161039e91906114cc565b60405180910390a150565b6000806060600080606080600060035489111580156103c85750600089115b610407576040517f08c379a00000000000000000000000000000000000000000000000000000000081526004016103fe90611631565b60405180910390fd5b6000600260008b8152602001908152602001600020905080600001548160010160009054906101000a900473ffffffffffffffffffffffffffffffffffffffff168260020183600301548460040160009054906101000a900460ff1685600501866006018760070160009054906101000a900460ff1685805461048990611680565b80601f01602080910402602001604051908101604052809291908181526020018280546104b590611680565b80156105025780601f106104d757610100808354040283529160200191610502565b820191906000526020600020905b8154815290600101906020018083116104e557829003601f168201915b5050505050955082805461051590611680565b80601f016020809104026020016040519081016040528092919081815260200182805461054190611680565b801561058e5780601f106105635761010080835404028352916020019161058e565b820191906000526020600020905b81548152906001019060200180831161057157829003601f168201915b505050505092508180546105a190611680565b80601f01602080910402602001604051908101604052809291908181526020018280546105cd90611680565b801561061a5780601f106105ef5761010080835404028352916020019161061a565b820191906000526020600020905b8154815290600101906020018083116105fd57829003601f168201915b505050505091509850985098509850985098509850985050919395975091939597565b600060036000815480929190610652906116e1565b91905055506040518061010001604052806003548152602001836106765733610679565b60005b73ffffffffffffffffffffffffffffffffffffffff168152602001868152602001428152602001600060038111156106b4576106b361110b565b5b81526020018581526020018481526020018315158152506002600060035481526020019081526020016000206000820151816000015560208201518160010160006101000a81548173ffffffffffffffffffffffffffffffffffffffff021916908373ffffffffffffffffffffffffffffffffffffffff160217905550604082015181600201908051906020019061074d929190610e94565b506060820151816003015560808201518160040160006101000a81548160ff021916908360038111156107835761078261110b565b5b021790555060a08201518160050190805190602001906107a4929190610e94565b5060c08201518160060190805190602001906107c1929190610e94565b5060e08201518160070160006101000a81548160ff0219169083151502179055509050503373ffffffffffffffffffffffffffffffffffffffff166003547f9e7a1f344c76217f10b0912e382db19e5ee824c325b4b6570e2f5e3a7426f2158560405161082e919061172a565b60405180910390a36003549050949350505050565b60006020528060005260406000206000915054906101000a900460ff1681565b60026020528060005260406000206000915090508060000154908060010160009054906101000a900473ffffffffffffffffffffffffffffffffffffffff16908060020180546108b290611680565b80601f01602080910402602001604051908101604052809291908181526020018280546108de90611680565b801561092b5780601f106109005761010080835404028352916020019161092b565b820191906000526020600020905b81548152906001019060200180831161090e57829003601f168201915b5050505050908060030154908060040160009054906101000a900460ff169080600501805461095990611680565b80601f016020809104026020016040519081016040528092919081815260200182805461098590611680565b80156109d25780601f106109a7576101008083540402835291602001916109d2565b820191906000526020600020905b8154815290600101906020018083116109b557829003601f168201915b5050505050908060060180546109e790611680565b80601f0160208091040260200160405190810160405280929190818152602001828054610a1390611680565b8015610a605780601f10610a3557610100808354040283529160200191610a60565b820191906000526020600020905b815481529060010190602001808311610a4357829003601f168201915b5050505050908060070160009054906101000a900460ff16905088565b600160009054906101000a900473ffffffffffffffffffffffffffffffffffffffff1673ffffffffffffffffffffffffffffffffffffffff163373ffffffffffffffffffffffffffffffffffffffff1614610b0d576040517f08c379a0000000000000000000000000000000000000000000000000000000008152600401610b0490611559565b60405180910390fd5b6000808273ffffffffffffffffffffffffffffffffffffffff1673ffffffffffffffffffffffffffffffffffffffff16815260200190815260200160002060009054906101000a900460ff16610b98576040517f08c379a0000000000000000000000000000000000000000000000000000000008152600401610b8f90611798565b60405180910390fd5b600160009054906101000a900473ffffffffffffffffffffffffffffffffffffffff1673ffffffffffffffffffffffffffffffffffffffff168173ffffffffffffffffffffffffffffffffffffffff161415610c29576040517f08c379a0000000000000000000000000000000000000000000000000000000008152600401610c2090611804565b60405180910390fd5b60008060008373ffffffffffffffffffffffffffffffffffffffff1673ffffffffffffffffffffffffffffffffffffffff16815260200190815260200160002060006101000a81548160ff0219169083151502179055507f272215cde179041f7a3e8da6f8aabc7c8fc1336ccd73aba698cb825a80d3be4881604051610caf91906114cc565b60405180910390a150565b6000803373ffffffffffffffffffffffffffffffffffffffff1673ffffffffffffffffffffffffffffffffffffffff16815260200190815260200160002060009054906101000a900460ff1680610d5e5750600160009054906101000a900473ffffffffffffffffffffffffffffffffffffffff1673ffffffffffffffffffffffffffffffffffffffff163373ffffffffffffffffffffffffffffffffffffffff16145b610d9d576040517f08c379a0000000000000000000000000000000000000000000000000000000008152600401610d9490611896565b60405180910390fd5b6003548211158015610daf5750600082115b610dee576040517f08c379a0000000000000000000000000000000000000000000000000000000008152600401610de590611631565b60405180910390fd5b6000600260008481526020019081526020016000209050818160040160006101000a81548160ff02191690836003811115610e2c57610e2b61110b565b5b0217905550827f2da7b23ca63c1eb969eee5fae4acb98186abecf5358b0354a82a5183ebca6b2a83604051610e6191906118b6565b60405180910390a2505050565b600160009054906101000a900473ffffffffffffffffffffffffffffffffffffffff1681565b828054610ea090611680565b90600052602060002090601f016020900481019282610ec25760008555610f09565b82601f10610edb57805160ff1916838001178555610f09565b82800160010185558215610f09579182015b82811115610f08578251825591602001919060010190610eed565b5b509050610f169190610f1a565b5090565b5b80821115610f33576000816000905550600101610f1b565b5090565b6000819050919050565b610f4a81610f37565b82525050565b6000602082019050610f656000830184610f41565b92915050565b6000604051905090565b600080fd5b600080fd5b600073ffffffffffffffffffffffffffffffffffffffff82169050919050565b6000610faa82610f7f565b9050919050565b610fba81610f9f565b8114610fc557600080fd5b50565b600081359050610fd781610fb1565b92915050565b600060208284031215610ff357610ff2610f75565b5b600061100184828501610fc8565b91505092915050565b61101381610f37565b811461101e57600080fd5b50565b6000813590506110308161100a565b92915050565b60006020828403121561104c5761104b610f75565b5b600061105a84828501611021565b91505092915050565b61106c81610f9f565b82525050565b600081519050919050565b600082825260208201905092915050565b60005b838110156110ac578082015181840152602081019050611091565b838111156110bb576000848401525b50505050565b6000601f19601f8301169050919050565b60006110dd82611072565b6110e7818561107d565b93506110f781856020860161108e565b611100816110c1565b840191505092915050565b7f4e487b7100000000000000000000000000000000000000000000000000000000600052602160045260246000fd5b6004811061114b5761114a61110b565b5b50565b600081905061115c8261113a565b919050565b600061116c8261114e565b9050919050565b61117c81611161565b82525050565b60008115159050919050565b61119781611182565b82525050565b6000610100820190506111b3600083018b610f41565b6111c0602083018a611063565b81810360408301526111d281896110d2565b90506111e16060830188610f41565b6111ee6080830187611173565b81810360a083015261120081866110d2565b905081810360c083015261121481856110d2565b905061122360e083018461118e565b9998505050505050505050565b600080fd5b600080fd5b7f4e487b7100000000000000000000000000000000000000000000000000000000600052604160045260246000fd5b611272826110c1565b810181811067ffffffffffffffff821117156112915761129061123a565b5b80604052505050565b60006112a4610f6b565b90506112b08282611269565b919050565b600067ffffffffffffffff8211156112d0576112cf61123a565b5b6112d9826110c1565b9050602081019050919050565b82818337600083830152505050565b6000611308611303846112b5565b61129a565b90508281526020810184848401111561132457611323611235565b5b61132f8482856112e6565b509392505050565b600082601f83011261134c5761134b611230565b5b813561135c8482602086016112f5565b91505092915050565b61136e81611182565b811461137957600080fd5b50565b60008135905061138b81611365565b92915050565b600080600080608085870312156113ab576113aa610f75565b5b600085013567ffffffffffffffff8111156113c9576113c8610f7a565b5b6113d587828801611337565b945050602085013567ffffffffffffffff8111156113f6576113f5610f7a565b5b61140287828801611337565b935050604085013567ffffffffffffffff81111561142357611422610f7a565b5b61142f87828801611337565b92505060606114408782880161137c565b91505092959194509250565b6000602082019050611461600083018461118e565b92915050565b6004811061147457600080fd5b50565b60008135905061148681611467565b92915050565b600080604083850312156114a3576114a2610f75565b5b60006114b185828601611021565b92505060206114c285828601611477565b9150509250929050565b60006020820190506114e16000830184611063565b92915050565b7f4f6e6c792061646d696e2063616e20706572666f726d2074686973206163746960008201527f6f6e000000000000000000000000000000000000000000000000000000000000602082015250565b600061154360228361107d565b915061154e826114e7565b604082019050919050565b6000602082019050818103600083015261157281611536565b9050919050565b7f4164647265737320697320616c726561647920616e20617574686f7269747900600082015250565b60006115af601f8361107d565b91506115ba82611579565b602082019050919050565b600060208201905081810360008301526115de816115a2565b9050919050565b7f5265706f727420646f6573206e6f742065786973740000000000000000000000600082015250565b600061161b60158361107d565b9150611626826115e5565b602082019050919050565b6000602082019050818103600083015261164a8161160e565b9050919050565b7f4e487b7100000000000000000000000000000000000000000000000000000000600052602260045260246000fd5b6000600282049050600182168061169857607f821691505b602082108114156116ac576116ab611651565b5b50919050565b7f4e487b7100000000000000000000000000000000000000000000000000000000600052601160045260246000fd5b60006116ec82610f37565b91507fffffffffffffffffffffffffffffffffffffffffffffffffffffffffffffffff82141561171f5761171e6116b2565b5b600182019050919050565b6000602082019050818103600083015261174481846110d2565b905092915050565b7f41646472657373206973206e6f7420616e20617574686f726974790000000000600082015250565b6000611782601b8361107d565b915061178d8261174c565b602082019050919050565b600060208201905081810360008301526117b181611775565b9050919050565b7f43616e6e6f742072656d6f76652061646d696e20617320617574686f72697479600082015250565b60006117ee60208361107d565b91506117f9826117b8565b602082019050919050565b6000602082019050818103600083015261181d816117e1565b9050919050565b7f4f6e6c7920617574686f7269746965732063616e20706572666f726d2074686960008201527f7320616374696f6e000000000000000000000000000000000000000000000000602082015250565b600061188060288361107d565b915061188b82611824565b604082019050919050565b600060208201905081810360008301526118af81611873565b9050919050565b60006020820190506118cb6000830184611173565b9291505056fea2646970667358221220ae7ba3a7b4848ed8084f69ac70416b6cf1d6f03ca7b385e7df4856b453b70e3c64736f6c63430008090033",
  "immutableReferences": {},
  "source": "// SPDX-License-Identifier: MIT\r\npragma solidity ^0.8.0;\r\n\r\n/**\r\n * @title IncidentReportRegistry\r\n * @dev Contract for registering and managing crime/incident reports on blockchain\r\n */\r\ncontract IncidentReportRegistry {\r\n    // Role-based access control\r\n    mapping(address => bool) public authorities;\r\n    address public admin;\r\n    \r\n    // Report status options\r\n    enum Status { Reported, UnderInvestigation, Resolved, Closed }\r\n    \r\n    // Incident Report structure\r\n    struct IncidentReport {\r\n        uint256 id;\r\n        address reporter;\r\n        string incidentHash; // IPFS hash of detailed report data\r\n        uint256 timestamp;\r\n        Status status;\r\n        string location; // Encrypted or hashed location data\r\n        string incidentType;\r\n        bool isAnonymous;\r\n    }\r\n    \r\n    // Storage\r\n    mapping(uint256 => IncidentReport) public reports;\r\n    uint256 public reportCount = 0;\r\n    \r\n    // Events\r\n    event ReportFiled(uint256 indexed reportId, address indexed reporter, string incidentType);\r\n    event StatusUpdated(uint256 indexed reportId, Status status);\r\n    event AuthorityAdded(address authority);\r\n    event AuthorityRemoved(address authority);\r\n    \r\n    // Modifiers\r\n    modifier onlyAdmin() {\r\n        require(msg.sender == admin, \"Only admin can perform this action\");\r\n        _;\r\n    }\r\n    \r\n    modifier onlyAuthority() {\r\n        require(authorities[msg.sender] || msg.sender == admin, \"Only authorities can perform this action\");\r\n        _;\r\n    }\r\n    \r\n    // Constructor\r\n    constructor() {\r\n        admin = msg.sender;\r\n        authorities[msg.sender] = true;\r\n    }\r\n    \r\n    /**\r\n     * @dev File a new incident report\r\n     * @param _incidentHash IPFS hash of detailed report data\r\n     * @param _location Location data (can be encrypted)\r\n     * @param _incidentType Type of incident/crime\r\n     * @param _isAnonymous Whether reporter wants to remain anonymous\r\n     */\r\n    function fileReport(\r\n        string memory _incidentHash,\r\n        string memory _location,\r\n        string memory _incidentType,\r\n        bool _isAnonymous\r\n    ) public returns (uint256) {\r\n        reportCount++;\r\n        \r\n        reports[reportCount] = IncidentReport({\r\n            id: reportCount,\r\n            reporter: _isAnonymous ? address(0) : msg.sender,\r\n            incidentHash: _incidentHash,\r\n            timestamp: block.timestamp,\r\n            status: Status.Reported,\r\n            location: _location,\r\n            incidentType: _incidentType,\r\n            isAnonymous: _isAnonymous\r\n        });\r\n        \r\n        emit ReportFiled(reportCount, msg.sender, _incidentType);\r\n        return reportCount;\r\n    }\r\n    \r\n    /**\r\n     * @dev Update the status of an incident report\r\n     * @param _reportId ID of the report to update\r\n     * @param _status New status to set\r\n     */\r\n    function updateReportStatus(uint256 _reportId, Status _status) public onlyAuthority {\r\n        require(_reportId <= reportCount && _reportId > 0, \"Report does not exist\");\r\n        \r\n        IncidentReport storage report = reports[_reportId];\r\n        report.status = _status;\r\n        \r\n        emit StatusUpdated(_reportId, _status);\r\n    }\r\n    \r\n    /**\r\n     * @dev Add a new authority\r\n     * @param _authority Address of the new authority\r\n     */\r\n    function addAuthority(address _authority) public onlyAdmin {\r\n        require(!authorities[_authority], \"Address is already an authority\");\r\n        authorities[_authority] = true;\r\n        emit AuthorityAdded(_authority);\r\n    }\r\n    \r\n    /**\r\n     * @dev Remove an authority\r\n     * @param _authority Address of the authority to remove\r\n     */\r\n    function removeAuthority(address _authority) public onlyAdmin {\r\n        require(authorities[_authority], \"Address is not an authority\");\r\n        require(_authority != admin, \"Cannot remove admin as authority\");\r\n        authorities[_authority] = false;\r\n        emit AuthorityRemoved(_authority);\r\n    }\r\n    \r\n    /**\r\n     * @dev Get incident report details\r\n     * @param _reportId ID of the report to retrieve\r\n     */\r\n    function getReport(uint256 _reportId) public view returns (\r\n        uint256 id,\r\n        address reporter,\r\n        string memory incidentHash,\r\n        uint256 timestamp,\r\n        Status status,\r\n        string memory location,\r\n        string memory incidentType,\r\n        bool isAnonymous\r\n    ) {\r\n        require(_reportId <= reportCount && _reportId > 0, \"Report does not exist\");\r\n        IncidentReport storage report = reports[_reportId];\r\n        \r\n        return (\r\n            report.id,\r\n            report.reporter,\r\n            report.incidentHash,\r\n            report.timestamp,\r\n            report.status,\r\n            report.location,\r\n            report.incidentType,\r\n            report.isAnonymous\r\n        );\r\n    }\r\n}",
  "sourcePath": "C:\\Users\\Dhingra\\Documents\\Hack-For-Impact\\blockchain\\contracts\\IncidentReportRegistry.sol",
  "compiler": {
    "name": "solc",
    "version": "0.8.9+commit.e5eed63a.Emscripten.clang"
  },
  "schemaVersion": "3.4.16",
  "updatedAt": "2025-03-21T06:07:52.664Z",
  "networkType": "ethereum",
  "devdoc": {
    "details": "Contract for registering and managing crime/incident reports on blockchain",
    "kind": "dev",
    "methods": {
      "addAuthority(address)": {
        "details": "Add a new authority",
        "params": {
          "_authority": "Address of the new authority"
        }
      },
      "fileReport(string,string,string,bool)": {
        "details": "File a new incident report",
        "params": {
          "_incidentHash": "IPFS hash of detailed report data",
          "_incidentType": "Type of incident/crime",
          "_isAnonymous": "Whether reporter wants to remain anonymous",
          "_location": "Location data (can be encrypted)"
        }
      },
      "getReport(uint256)": {
        "details": "Get incident report details",
        "params": {
          "_reportId": "ID of the report to retrieve"
        }
      },
      "removeAuthority(address)": {
        "details": "Remove an authority",
        "params": {
          "_authority": "Address of the authority to remove"
        }
      },
      "updateReportStatus(uint256,uint8)": {
        "details": "Update the status of an incident report",
        "params": {
          "_reportId": "ID of the report to update",
          "_status": "New status to set"
        }
      }
    },
    "title": "IncidentReportRegistry",
    "version": 1
  },
  "userdoc": {
    "kind": "user",
    "methods": {},
    "version": 1
  }
}